:020000040800F2
:100000000005002001010008BD0C0008A104000843
:10001000B90C00086D0100082B1800080000000052
:100020000000000000000000000000003511000882
:100030007101000800000000F90E000871120008AC
:100040001B0100081B0100081B0100081B01000820
:100050001B0100081B0100081B0100081B01000810
:100060001B0100081B0100081B0100081B01000800
:100070001B0100081B0100081B0100081B010008F0
:100080001B0100081B0100081B0100081B010008E0
:100090001B0100081B0100081B0100087301000878
:1000A0001B0100081B0100081B0100081B010008C0
:1000B0001B0100081B0100081B0100081B010008B0
:1000C0001B0100081B0100081B0100081B010008A0
:1000D0001B010008091600081B0100081B0100088D
:1000E0001B0100081B0100081B010008DFF80CD0F1
:1000F00000F02AF800480047A91B0008000500206E
:100100000648804706480047FEE7FEE7FEE7FEE7B1
:10011000FEE7FEE7FEE7FEE7FEE7FEE775120008F2
:10012000ED00000840EA01039B0703D009E008C97D
:10013000121F08C0042AFAD203E011F8013B00F8AC
:10014000013B521EF9D27047064C074D06E0E068AD
:1001500040F0010394E8070098471034AC42F6D30E
:10016000FFF7C8FFD82B0008F82B000800BFFEE7F8
:10017000704710B54FF4807000F040F848B100F0BF
:10018000BDFE4FF4807000F02DF84FF4807000F049
:100190002FF810BD0EB50121084600F029FF0821F7
:1001A000012000F089F84FF48070019000208DF854
:1001B00008000C208DF8090001208DF80A0001A824
:1001C00000F030F817208DF8000002208DF80100B3
:1001D0008DF8020001208DF80300684600F070FDE4
:1001E0000EBD000001490860704700001404014082
:1001F00001490860704700001404014001460020D6
:100200000022074B1B6803EA0102054B14331B68ED
:100210000B4013B10AB1012000E00020704700003C
:1002200000040140002123498279002A3AD00A467D
:10023000126803689A430B461A600A1D1268036825
:100240009A430B1D1A60027911440A6803681A4325
:100250000A60184A0832126803689A43154B08333B
:100260001A601A1D126803689A43124B0C331A6005
:100270004279102A0ED11A1F126803681A430D4BD7
:1002800008331A601A1D126803681A43094B0C33AD
:100290001A600DE00749427911440A6803681A435D
:1002A0000A6005E0027911440A6803689A430A600B
:1002B000704700000004014030B500228B071C0F7E
:1002C0000F2303FA04F20B4B8C1053F824309343A2
:1002D000084C8D1044F8253023468C1053F82430F8
:1002E0008C07240F00FA04F42343024C8D1044F8C9
:1002F000253030BD080001402DE9F04102460025BF
:100300000026002000230024002791F803C00CF0F1
:100310000F0591F803C00CF0100CBCF1000F03D0D6
:1003200091F802C04CEA050591F800C0BCF1000F3D
:1003300031D0146800202BE04FF0010C0CFA00F3D0
:10034000B1F800C00CEA03069E4220D183004FF0B2
:100350000F0C0CFA03F7BC4305FA03FC4CEA040447
:1003600091F803C0BCF1280F06D14FF0010C0CFA34
:1003700000FCC2F814C00AE091F803C0BCF1480FB9
:1003800005D14FF0010C0CFA00FCC2F810C0401C63
:100390000828D1D31460B1F800C0BCF1FF0F34DDE0
:1003A000546800202EE000F1080C4FF0010808FA14
:1003B0000CF3B1F800C00CEA03069E4221D1830081
:1003C0004FF00F0C0CFA03F7BC4305FA03FC4CEAA0
:1003D000040491F803C0BCF1280F05D100F1080C0A
:1003E00008FA0CF8C2F8148091F803C0BCF1480F69
:1003F00007D100F1080C4FF0010808FA0CF8C2F818
:100400001080401C0828CED35460BDE8F081000065
:10041000F0B50A46002300240021002500F0004624
:10042000B6F1004F02D11D4EF16901E01B4E71681B
:10043000C0F3034583B200F44016B6F5401F08D15F
:1004400021F07061154E766826F07066134F7E605D
:1004500012E000F48016B6F5801F06D1032606FAD6
:1004600005F4A14341F0706106E0460D360103FA40
:1004700006F6B14341F0706122B1460D360103FA30
:1004800006F6314300F00046B6F1004F02D1034EAC
:10049000F16101E0014E7160F0BD0000000001401B
:1004A00000BFFEE770B502460024002500230020AF
:1004B000958A138B1B0445EA030626F07F4404EA61
:1004C00001068E4201D1012000E0002070BD21B163
:1004D000028842F00102028004E002884FF6FE73B7
:1004E0001A4002807047000010B504460B48844251
:1004F00009D10121480500F06BFD00214FF40010E7
:1005000000F066FD08E00121880500F061FD002192
:100510004FF4800000F05CFD10BD0000005400406E
:1005200021B1028842F48072028004E002884FF612
:10053000FF631A400280704721B1028842F40072C2
:10054000028004E002884FF6FF531A400280704791
:100550000CB50246002000230193009300920B0F7C
:10056000019321F07F41019B1BB1009B1433009349
:1005700003E0090C009B18330093009B1B680B40A1
:100580000BB1012000E000200CBD00002DE9F0437C
:1005900085B004460D460026B1460427DFF8CC801E
:1005A000A6884FF6C0700640684600F031FDDDF8C1
:1005B00008802F48B8FBF0F01FFA80F946EA0906D8
:1005C000A68020884FF6FE71084020800026294929
:1005D000286888420CD828684000B8FBF0F087B241
:1005E000042F00DA04273E4309F10100208427E0AC
:1005F000E8884BF6FF71884206D1286800EB40007E
:10060000B8FBF0F087B209E0286800EBC00101EB0D
:100610000010B8FBF0F087B247F48047C7F30B0037
:1006200008B947F0010747F4004006434FF49670BD
:1006300009FB00F04FF47A7190FBF1F0401C20842C
:10064000A683208840F00100208026884FF6F530F0
:100650000640A8886989084306432680A889298915
:100660000843208105B0BDE8F083000000127A0045
:1006700040420F00A086010012B141F0010102E0EA
:100680004FF6FE73194001827047018270470000E7
:1006900070B504460D4600BF4FF400311C48FFF70B
:1006A00057FF0028F8D101211948FFF739FF00BF93
:1006B00018491748FFF7F6FE0028F9D000227821E4
:1006C0001348FFF7D9FF00BF13491148FFF7EAFEAF
:1006D0000028F9D021460E48FFF7D7FF00BF0E498A
:1006E000891E0B48FFF7DEFE0028F8D0294608488F
:1006F000FFF7CBFF00BF0849891E0548FFF7D2FE70
:100700000028F8D001210248FFF716FF70BD000055
:1007100000580040010003008200070008B50121D5
:10072000092000F065FC01211D48FFF771FE8020C3
:10073000ADF8000010208DF8030003208DF80200B2
:1007400069461848FFF7D8FD2020ADF8000069463B
:100750001448FFF7D1FD1020ADF80000694611489C
:10076000FFF7CAFD0820ADF8000069460D48FFF705
:10077000C3FD4020ADF8000048208DF80300694615
:100780000848FFF7B9FD4FF48070ADF80000042071
:100790008DF8030069460348FFF7AEFD08BD000071
:1007A00000023000000C014070B5CAB04FF48C72EA
:1007B000294904A8FFF7B6FC28A30FCB8DE80F004A
:1007C0000126002441E000F095F808B900263EE03B
:1007D0001DF80410C12000F0F1F90021C32000F041
:1007E000EDF90421082000F0E9F9012001F082F977
:1007F0000021082000F0E2F9012001F07BF900253A
:1008000012E004EB840004A901EB8000405D00B914
:100810000CE004EB840004AA02EB8000415D05209B
:1008200000F0CCF9681CC5B2142DEADB00BF2946E4
:10083000B92000F0C3F9FF21B22000F0BFF9042174
:10084000372000F0BBF9601CC4B20E2CBBDB00BF2C
:1008500030464AB070BD0000A81E00080001020327
:1008600004050618191A1B1C1D24000010B543218D
:10087000352000F0A3F909211C2000F09FF9202168
:10088000BD2000F09BF90121082000F097F9052018
:1008900001F030F90021082000F090F9052001F066
:1008A00029F900F027F808B9002010BDFF21B22077
:1008B00000F084F90621372000F080F9052001F0CE
:1008C00019F90621372000F079F9052001F012F915
:1008D0000B211C2000F072F91021292000F06EF984
:1008E0000021BD2000F06AF90120DEE710B500F01C
:1008F0001DF810BD70B5002600250CE0B22000F0F8
:10090000B3F80446212C01D1012606E0142001F0A1
:10091000F1F8681CC5B2052DF0DB00BF304670BD94
:1009200010B5C52000F0A0F810BD000010B50820DB
:100930001949087000F032F80021BD2000F03EF99E
:100940004821172000F03AF9052001F0D3F8802162
:100950003C2000F033F907213E2000F02FF9FF2161
:10096000382000F02BF907213A2000F027F9002168
:10097000402000F023F90821422000F01FF9002157
:10098000442000F01BF90821462000F017F905204B
:1009900001F0B0F810BD00003600002010B50620B0
:1009A00000F062F83521172000F008F9052001F069
:1009B000A1F8062000F058F80321892000F0FEF885
:1009C000052001F097F84321CF2000F0F7F805202B
:1009D00001F090F80221CB2000F0F0F80B2111205B
:1009E00000F0ECF81F480078402810D100211E20AC
:1009F00000F0E4F80F21192000F0E0F818211B2086
:100A000000F0DCF82C211D2000F0D8F80FE00021C8
:100A10001E2000F0D3F83F21192000F0CFF8482124
:100A20001B2000F0CBF81F211D2000F0C7F8052087
:100A300001F060F80421CD2000F0C0F84C2117200F
:100A400000F0BCF8052001F055F80021B92000F0B5
:100A5000B5F84F21CF2000F0B1F8FF216F2000F052
:100A6000ADF810BD360000202DE9F0410546002408
:100A70000026A046052700203A490860012001F021
:100A80005FF800BF1DE007F0800020B1012035496C
:100A9000091D086003E000203249091D086001209B
:100AA00001F04EF800202F490C3108607806070E3F
:100AB000012001F045F801202B49C1F89C01601C80
:100AC000C4B2082CDFDB00241DE005F0800020B15B
:100AD00001202449091D086003E000202149091D67
:100AE0000860012001F02CF800201E490C3108603C
:100AF0006806050E012001F023F801201A49C1F80B
:100B00009C01601CC4B2082CDFDB012001F018F846
:100B100000241BE07006060E12487838006800F0CA
:100B2000FF08012001F00CF800200F49C1F89C01DA
:100B3000B8F1010F01D146F00106012001F000F8E3
:100B4000012008490C310860601CC4B2082CE1DBAC
:100B5000012000F0F5FF0120024908603046BDE8A1
:100B6000F0810000908121420080214210B50120D7
:100B700010490860052000F0BDFF00200E49C1F8B3
:100B80008C01052000F0B6FF01200A49086005200D
:100B900000F0B0FF00200849C1F89001052000F0E6
:100BA000A9FF01200349091D0860052000F0A2FFEC
:100BB00010BD00008C812142008021422DE9F041CE
:100BC00005460E460024042700203949086001200C
:100BD00000F0B6FF00BF1DE007F0800020B101204B
:100BE0003349091D086003E000203149091D0860F0
:100BF000012000F0A5FF00202D490C310860780687
:100C0000070E012000F09CFF01202A49C1F89C0139
:100C1000601CC4B2082CDFDB00241DE005F080005E
:100C200020B101202249091D086003E0002020496D
:100C3000091D0860012000F083FF00201C490C31D1
:100C400008606806050E012000F07AFF01201949AE
:100C5000C1F89C01601CC4B2082CDFDB00241DE03D
:100C600006F0800020B101201149091D086003E051
:100C700000200F49091D0860012000F061FF0020DD
:100C80000B490C3108607006060E012000F058FF79
:100C900001200849C1F89C01601CC4B2082CDFDBAC
:100CA000012000F04DFF012001490860BDE8F081FE
:100CB000908121420080214200BFFEE77047000082
:100CC00070B5002100230F22C47804B3154C2468AA
:100CD00004F4E064C4F5E064210AC1F10403CA40ED
:100CE000447804FA03F184781440214309010E4C3E
:100CF0000678A155047804F01F050124AC4005785E
:100D00006D11AD0005F1E025C5F8004109E004785A
:100D100004F01F050124AC40044D0678761145F817
:100D2000264070BD0CED00E000E400E080E100E052
:100D300002490143024A1160704700000000FA05B1
:100D40000CED00E010B5642000F0D4FEAE2000F001
:100D500079FE202000F076FE102000F073FEB02017
:100D600000F070FEC82000F06DFE002000F06AFE6A
:100D7000102000F067FE402000F064FE812000F0AB
:100D800061FEFF2000F05EFEA12000F05BFEA620C9
:100D900000F058FEA82000F055FE3F2000F052FE63
:100DA000A42000F04FFED32000F04CFE002000F005
:100DB00049FED52000F046FEF02000F043FED92089
:100DC00000F040FE222000F03DFEDA2000F03AFE66
:100DD000122000F037FEDB2000F034FE202000F06F
:100DE00031FE8D2000F02EFE142000F02BFEAF20EF
:100DF00000F028FE10BD10B58D2000F023FE142059
:100E000000F020FEAF2000F01DFE10BD2DE9F047E0
:100E10000646894617469A464FF0000800240025EA
:100E2000BAF1010F03D0BAF1020F5ED125E020E044
:100E3000785D203800F0FF087E2E04DD002609F1E1
:100E4000010000F0FF094946304600F074F9002423
:100E500009E008EB4801264A02EB4101085D00F079
:100E6000F8FD601CC4B2062CF3DBB01DC6B2681CD2
:100E7000C5B2785D0028DBD137E032E0785D2038FC
:100E800000F0FF08782E04DD002609F1010000F0D3
:100E9000FF094946304600F04EF9002407E004EB14
:100EA0000811144A505C00F0D4FD601CC4B2082C38
:100EB000F5DB09F10100C1B2304600F03CF9002435
:100EC00008E004EB081108310A4A505C00F0C1FD4B
:100ED000601CC4B2082CF4DB06F10800C6B2681C22
:100EE000C5B2785D0028C9D100BF00BFBDE8F0875A
:100EF000C01F0008E82100087047000010B500245A
:100F00002B20FFF7B1FD2849087000212920FFF7A9
:100F100055FE00210220FFF751FE2348007800F023
:100F20001000C8B1B220FFF79FFD212814D1BF20C7
:100F3000FFF79AFD35280FD1BA20FFF795FD04463B
:100F4000002C05DD042C03DC10201849087006E095
:100F500011201649087002E0112014490870002180
:100F60002B20FFF72BFE00211C20FFF727FE00217E
:100F70002920FFF723FE00210220FFF71FFE00219A
:100F80002B20FFF71BFE0021BA20FFF717FE0021E0
:100F9000BC20FFF713FE01210820FFF70FFE002100
:100FA0000820FFF70BFE10BD3700002000000020D6
:100FB00029B1064AD2690243044BDA6104E0034ACC
:100FC000D2698243014BDA61704700000010024091
:100FD00029B1064A12690243044B1A6104E0034A2C
:100FE00012698243014B1A617047000000100240F1
:100FF00029B1064A92690243044B9A6104E0034A0C
:1010000092698243014B9A617047000000100240D0
:1010100030B500210022002400232D4D6D6805F01D
:101020000C0121B1042905D0082923D105E0294D5F
:10103000056022E0274D05601FE0254D6D6805F431
:101040007012234D6D6805F48034022505EB924241
:101050001CB9214D554305600BE01D4D6D6805F42D
:1010600000351DB11C4D5543056002E0194D554337
:10107000056002E0174D056000BF00BF144D6D68AC
:1010800005F0F0010909154D6B5C0568DD40456010
:101090000F4D6D6805F4E061090A104D6B5C456801
:1010A000DD4085600A4D6D6805F46051C90A0B4D3D
:1010B0006B5C4568DD40C560054D6D6805F44041D9
:1010C000890B074D6B5CC568B5FBF3F5056130BD59
:1010D0000010024000127A0000093D0022000020AA
:1010E0003200002070B50024002500BF1DE0FFF78E
:1010F000FDFB052000F0FEFCFFF756FB28B9FFF7CB
:1011000035FD052000F0F6FC0DE0052000F0F2FCB6
:10111000FFF7ACFB28B9FFF729FD052000F0EAFC3A
:1011200001E0012503E0601CC4B2052CDFDB00BF39
:10113000284670BD704770B504460D4605F1B001F4
:10114000C8B200F07FFC102141EA141000F07AFCD4
:1011500004F00F0141F0010000F074FC70BD10B507
:1011600000F002F810BD00000CB5002001900090C6
:101170003348006840F480303149086000BF30488F
:10118000006800F4003000900198401C0190009825
:1011900018B90198B0F5A06FF1D12948006800F4A2
:1011A000003010B10120009001E000200090009874
:1011B000012843D12348006840F01000214908600D
:1011C0000846006820F0030008600846006840F008
:1011D000020008601A48406819494860084640689B
:1011E00048600846406840F48060486008464068AF
:1011F00020F47C1048600846406840F4E8104860DD
:101200000846006840F08070086000BF0C48006825
:1012100000F000700028F9D00948406820F0030071
:10122000074948600846406840F00200486000BF37
:101230000348406800F00C000828F9D10CBD0000FC
:101240000010024000200240042808D14FF0E021A5
:10125000096941F004014FF0E022116107E04FF00D
:10126000E021096921F004014FF0E022116170478B
:101270007047000010B51348006840F001001149A4
:10128000086008464068104908400E494860084612
:1012900000680E4908400B4908600846006820F4C1
:1012A000802008600846406820F4FE0048604FF443
:1012B0001F008860FFF753FF4FF00060044908608B
:1012C00010BD0000001002400000FFF8FFFFF6FE16
:1012D00008ED00E021B1028842F00102028004E042
:1012E00002884FF6FE731A400280704701894FF65C
:1012F000F87211400181704770B50024002200236C
:10130000058C4FF6FE7635400584028C8388048B6D
:101310004FF68F752C40B51E2C400D882C43751E42
:101320002A400D892A434D882A43144DA8420BD0E8
:10133000134DA84208D0134DA84205D0124DA84223
:1013400002D0124DA84213D14FF6F7752A404D89AD
:101350002A434FF6FB752A408D882A434FF6FF65D6
:101360002B404FF6FF552B408D892B43CD892B43C6
:1013700083800483CD888586028470BD002C014063
:101380000034014000400140004401400048014059
:1013900070B5002400220023058C4FF6EF7635400F
:1013A0000584028C8388048B48F6FF752C404FF629
:1013B000FF452C400D884FF6FF7606EA05252C43A5
:1013C0004FF6DF752A400D8906EA05152A434D8838
:1013D00006EA05152A43154DA84202D0144DA8422D
:1013E0001DD14FF67F752A404D894FF6FF7606EAEC
:1013F00005152A434FF6BF752A408D8806EA051564
:101400002A434FF6FF352B404FF2FF752B408D8955
:1014100006EA85052B43CD8906EA85052B438380A3
:101420000483CD880587028470BD0000002C014034
:101430000034014070B5002400220023058C4FF6D3
:10144000FF6635400584028C8388848B4FF68F7548
:101450002C404FF6FC752C400D882C434FF6FF5561
:101460002A400D894FF6FF7606EA05252A434D8866
:1014700006EA05252A43154DA84202D0144DA8427C
:101480001DD14FF2FF752A404D894FF6FF7606EACF
:1014900005252A434FF6FF352A408D8806EA0525A3
:1014A0002A434EF6FF752B404DF6FF752B408D8974
:1014B00006EA05152B43CD8906EA05152B438380E3
:1014C0008483CD888587028470BD0000002C014094
:1014D0000034014070B5002200230024058C4EF634
:1014E000FF7635400584038C8488828B48F6FF752F
:1014F0002A404FF6FF452A400D884FF6FF7606EA50
:1015000005252A434DF6FF752B400D8906EA053562
:101510002B434D8806EA05352B430B4DA84202D0DC
:101520000A4DA84208D14BF6FF752C408D894FF625
:10153000FF7606EA85152C4384808283CD88A0F847
:101540004050038470BD0000002C01400034014075
:101550000021018041808180C180018141818181A0
:10156000C1817047002202881D4B98420ED01D4B4E
:1015700098420BD0B0F1804F08D01B4B984205D059
:101580001A4B984202D01A4B984204D14FF68F73EF
:101590001A404B881A43174B984207D0164B984273
:1015A00004D04FF6FF431A40CB881A4302808B8841
:1015B00083850B8803850A4B98420BD0094B9842D0
:1015C00008D00E4B984205D00D4B984202D00D4BDF
:1015D000984201D10B7A0386012383827047000071
:1015E000002C01400034014000040040000800408D
:1015F000000C00400010004000140040004001407A
:10160000004401400048014010B540F225511D48FA
:1016100000F04AF810B31B4800F002F9C4B21A48AF
:10162000008800F40040C8B91748008800F48040E2
:1016300060B10A2C03D000201349088020E0124832
:10164000008840F400401049088019E00D2C06D1B4
:101650000D48008840F480400B49088010E00A489B
:101660000088C0F30D0009490C5407480088401C4D
:101670000549088008460088C72801DD0020088049
:1016800010BD00000038014020000020380000207C
:1016900021B1828942F40052828104E082894DF6B0
:1016A000FF731A408281704770B502460024002300
:1016B0000025002040F66A16B14200D100BFC1F3F8
:1016C000421501F01F03012606FA03F3012D02D192
:1016D0009689334006E0022D02D1168A334001E09C
:1016E000968A33400C12012606FA04F41688344018
:1016F00013B10CB1012000E0002070BDF0B503462D
:10170000002400260025002040F66A17B94200D1C7
:1017100000BF1846C1F3421401F01F06012707FA63
:1017200006F5012C01D10C3004E0022C01D110305F
:1017300000E014301AB107682F43076002E0076821
:10174000AF430760F0BD00002DE9F04786B00546C5
:101750000E460024A24600BFA1460027B08900B172
:1017600000BF2F462C8A4CF6FF700440F0880443DB
:101770002C82AC894EF6F3100440B08831890843BE
:10178000718908430443AC81AC8A4FF6FF400440A2
:10179000B0890443AC8201A8FFF73AFC1F48874296
:1017A00002D1DDF810A001E0DDF80CA0A88900F45A
:1017B000004040B10AEBCA0000EB0A103168490052
:1017C000B0FBF1F807E00AEBCA0000EB0A10316841
:1017D0008900B0FBF1F86420B8FBF0F004012009A7
:1017E000642101FB1089A88900F4004040B1322037
:1017F00000EBC900B0FBF1F000F00700044308E083
:10180000322000EB09106421B0FBF1F000F00F0072
:1018100004432C8106B0BDE8F08700000038014089
:1018200001468888C0F30800704700BFFEE700004B
:1018300010B5044634B901203449087034A000F0D2
:101840000FF961E03148007800285AD000202F4974
:10185000087031480078182835D007DC07284ED2A8
:10186000DFE800F04D131A1E25292D001C283AD060
:1018700006DC19282BD01A282DD01B283FD12EE0AA
:101880001D2834D024283AD135E00120234908709E
:1018900023A000F0E5F833E027A000F0E1F82FE006
:1018A00002201E4908702AA000F0DAF828E02DA0D6
:1018B00000F0D6F824E030A000F0D2F820E033A009
:1018C00000F0CEF81CE036A000F0CAF818E039A00D
:1018D00000F0C6F814E03CA000F0C2F810E03FA011
:1018E00000F0BEF80CE042A000F0BAF808E046A014
:1018F00000F0B6F804E04AA000F0B2F800E000BF43
:1019000002E04BA000F0ACF810BD00000200002087
:10191000CAD5B5BD0D0A000001000020030000205B
:1019200022B4FAC2EBB2E2CAD422CAB6B1F0B3C949
:10193000B9A60D0A0000000022B2E2CAD4CDEAB175
:10194000CF22CAB6B1F0B3C9B9A60D0A0000000093
:1019500022B1B1BEA922CAB6B1F0B3C9B9A60D0A67
:101960000000000022C9CFBAA322CAB6B1F0B3C9A1
:10197000B9A60D0A0000000022BFAAB5C622CAB649
:10198000B1F0B3C9B9A60D0A0000000022B9D8B55C
:10199000C622CAB6B1F0B3C9B9A60D0A000000004C
:1019A00022B9E3D6DD22CAB6B1F0B3C9B9A60D0A91
:1019B0000000000022C9EEDBDA22CAB6B1F0B3C9DA
:1019C000B9A60D0A0000000022CFF2D7F3D7AA2251
:1019D000CAB6B1F0B3C9B9A60D0A000022CFF2D33E
:1019E000D2D7AA22CAB6B1F0B3C9B9A60D0A00006F
:1019F00022B4F2BFAABFD5B5F722CAB6B1F0B3C9B7
:101A0000B9A60D0A0000000022B9D8B1D5BFD5B5DE
:101A1000F722CAB6B1F0B3C9B9A60D0A000000009A
:101A200022BAF3CDCB22CAB6B1F0B3C9B9A6000031
:101A3000C7EBCBB5B3F6D2BBBCB6BFDAC1EE0D0A6D
:101A40000000000010B5044621460020FEF720FEED
:101A500010BD10B5044621464020FEF719FE10BD0A
:101A6000014A024900F013B88D1B00081C00002039
:101A700002E008C8121F08C1002AFAD17047704757
:101A8000002001E001C1121F002AFBD170472DE99F
:101A9000F04116460F460446002503E03946B0479C
:101AA000641C6D1C20780028F8D12846BDE8F08120
:101AB00010B56FF00400FFF7C7FB0A4800680A4939
:101AC000B0FBF1F0094908700846007800EB4001CE
:101AD000C1EBC0104FF6FF7101EAC0000449088055
:101AE00010BD00000400002000127A001800002041
:101AF0001A0000200146114A12884A434FF0E023A1
:101B00005A6100229A611A46126942F001021A6172
:101B100000BF4FF0E022106900F001021AB100F49A
:101B20008032002AF5D04FF0E022126922F0010243
:101B30004FF0E0231A6100229A6170471A000020DA
:101B40000146114A12784A434FF0E0235A610022BD
:101B50009A611A46126942F001021A6100BF4FF001
:101B6000E022106900F001021AB100F48032002A6C
:101B7000F5D04FF0E022126922F001024FF0E0238D
:101B80001A6100229A6170471800002000BF054AC0
:101B9000128802F04002002AF9D0C2B2014B1B1D8C
:101BA0001A807047003801404FF4A060FFF7C0F87A
:101BB000FFF77EFFFEF7B2FDFEF7ECFAFEF7D6FF69
:101BC00000F058F800F0E2F8FFF7BCF8FFF713F95F
:101BD0004FF4165000F018F900201D4908701D49F7
:101BE00008601DA0FFF73CFF02231EA20321142062
:101BF000FFF70CF92BE016480078102815D003DC0D
:101C000048B101281DD104E011281BD0312818D17A
:101C100000E000BF1AE001200D490870FFF762FAEA
:101C200010B931200A49087010E0FEF779FE10491A
:101C3000087008460078FFF7FBFD00200449087093
:101C400004E000BF00200249087000BF00BFD2E7D7
:101C50000000002090812142D4CBD0D0B3CCD0F270
:101C60000D0A000068656C6C6F20776F726C640001
:101C70000100002000B589B001210846FFF798F95E
:101C800001210420FFF7B4F901210846FFF7B0F95C
:101C900001213C48FEF7BCFB18208DF823000120F1
:101CA000ADF8200003208DF8220008A93648FEF781
:101CB00023FB18208DF823000220ADF8200003201C
:101CC0008DF8220008A93048FEF716FB18208DF881
:101CD00023000420ADF8200003208DF8220008A97D
:101CE0002948FEF709FB18208DF823000820ADF8DD
:101CF000200003208DF8220008A92348FEF7FCFAF3
:101D00004FF08040FFF7F2FA0020ADF81A00ADF86E
:101D10001600C720ADF8180041F61F40ADF81400BA
:101D200000208DF81C0005A94FF08040FFF71AFC39
:101D300001A8FFF70DFC6020ADF804000020ADF80D
:101D40000C000120ADF806000020ADF80A0001A942
:101D50004FF08040FFF7D0FA01A94FF08040FFF725
:101D600017FB01A94FF08040FFF764FB01A94FF07A
:101D70008040FFF7AFFB01218807FFF7ABFA09B0FE
:101D800000BD0000000118000008014000B585B04A
:101D900001210820FFF72CF901218805FFF708F938
:101DA0001C208DF813004FF44060ADF810000320A4
:101DB0008DF8120004A91148FEF79EFA1048FEF7AC
:101DC00093FB4FF48060ADF80A000001ADF80C0001
:101DD0000C4800904BF6FF70ADF806000020ADF8FF
:101DE00004003020ADF8080069460548FEF7CEFB38
:101DF00001210348FEF76BFB05B000BD000C01405C
:101E000000580040801A060010B586B00446012133
:101E100044F20400FFF7ECF84FF40070ADF8140042
:101E200003208DF8160018208DF8170005A91C480E
:101E3000FEF762FA4FF48060ADF8140004208DF8CC
:101E4000170005A91648FEF757FA25208DF800005F
:101E500003208DF801008DF8020001208DF80300A9
:101E60006846FEF72DFF01940020ADF80800ADF89C
:101E70000A00ADF80C00ADF810000C20ADF80E0013
:101E800001A90848FFF760FC012240F225510548EE
:101E9000FFF734FC01210348FFF7FAFB06B010BD41
:101EA00000080140003801406D616F206D616F00D6
:101EB00000000000000000000000000064616920D4
:101EC0006D612063652073686900000000000000F8
:101ED0006365207368692077616E20626900000085
:101EE00000000000626569206A696E6700000000FA
:101EF00000000000000000007368616E67206861E8
:101F00006900000000000000000000006B61692013
:101F100064656E6700000000000000000000000023
:101F20006775616E2064656E670000000000000048
:101F3000000000006775616E67207A686F750000A9
:101F400000000000000000007368656E207A68657C
:101F50006E00000000000000000000007869616E63
:101F600067207A756F207A6875616E000000000046
:101F70007869616E6720796F75207A6875616E0087
:101F8000000000006461206B6169206B6F6E672048
:101F90007469616F000000006775616E20626920DE
:101FA0006B6F6E67207469616F000000686F752049
:101FB00074756900000000000000000000000000CF
:101FC0000000000000000000002F000000000700DB
:101FD000070000147F147F1400242A7F2A12006255
:101FE0006408132300364955225000000503000001
:101FF00000001C224100000041221C000014083E89
:1020000008140008083E0808000000A0600000084E
:1020100008080808000060600000002010080402A2
:10202000003E5149453E0000427F40000042615160
:102030004946002141454B31001814127F100027FA
:1020400045454539003C4A494930000171090503BD
:1020500000364949493600064949291E00003636EE
:102060000000000056360000000814224100001451
:10207000141414140000412214080002015109062E
:1020800000324959513E007C1211127C007F4949AF
:102090004936003E41414122007F4141221C007FE0
:1020A00049494941007F09090901003E4149497AEE
:1020B000007F0808087F0000417F41000020404168
:1020C0003F01007F08142241007F40404040007FD4
:1020D000020C027F007F0408107F003E4141413E18
:1020E000007F09090906003E4151215E007F091960
:1020F00029460046494949310001017F0101003F5D
:102100004040403F001F2040201F003F4038403FDC
:102110000063140814630007087008070061514940
:10212000454300007F41410000552A552A550000D3
:1021300041417F0000040201020400404040404051
:10214000000001020400002054545478007F4844E9
:10215000443800384444442000384444487F003820
:102160005454541800087E0901020018A4A4A47C49
:10217000007F080404780000447D40000040808413
:102180007D00007F102844000000417F4000007C5B
:1021900004180478007C0804047800384444443867
:1021A00000FC242424180018242418FC007C0804B3
:1021B000040800485454542000043F444020003C8C
:1021C0004040207C001C2040201C003C4030403C13
:1021D000004428102844001CA0A0A07C00446454A3
:1021E0004C441414141414140000000000000000E7
:1021F0000000000000000000000000F800000000E7
:10220000000000333000000000100C06100C060027
:10221000000000000000000040C07840C07840008E
:10222000043F04043F040400007088FC08300000F0
:10223000001820FF211E0000F008F000E018000048
:1022400000211C031E211E0000F008887000000001
:102250001E2123241927211010160E000000000053
:102260000000000000000000000000E01804020070
:10227000000000071820400000020418E0000000E1
:102280000040201807000000404080F080404000DF
:102290000202010F01020200000000F00000000035
:1022A0000101011F01010100000000000000000009
:1022B00080B070000000000000000000000000007E
:1022C0000001010101010101000000000000000007
:1022D00000303000000000000000000080601804A2
:1022E000006018060100000000E010080810E0007F
:1022F000000F102020100F00001010F80000000048
:102300000020203F2020000000700808088870008E
:10231000003028242221300000300888884830000E
:102320000018202020110E000000C02010F800002E
:1023300000070424243F240000F8088888080800C7
:102340000019212020110E0000E0108888180000DC
:10235000000F112020110E0000380808C8380800AE
:102360000000003F0000000000708808088870002E
:10237000001C222121221C0000E010080810E000AF
:102380000000312222110F00000000C0C000000038
:10239000000000303000000000000080000000005D
:1023A0000000806000000000000080402010080055
:1023B000000102040810200040404040404040001E
:1023C00004040404040404000008102040800000F9
:1023D0000020100804020100007048080808F000FE
:1023E0000000003036010000C030C828E810E000CE
:1023F0000718272423140B000000C038E000000059
:10240000203C23020227382008F8888888700000C2
:10241000203F202020110E00C03008080808380096
:10242000071820202010080008F808080810E0000D
:10243000203F202020100F0008F88888E8081000AE
:10244000203F20202320180008F88888E808100082
:10245000203F200003000000C030080808380000BA
:1024600007182020221E020008F808000008F808BB
:10247000203F210101213F20000808F80808000042
:102480000020203F2020000000000808F808080075
:10249000C08080807F00000008F888C028180800ED
:1024A000203F20012638200008F808000000000026
:1024B000203F20202020300008F8F800F8F808001D
:1024C000203F003F003F200008F830C00008F80817
:1024D000203F200007183F00E01008080810E00027
:1024E0000F10202020100F0008F808080808F0003E
:1024F000203F210101010000E01008080810E00061
:102500000F18242438504F0008F8888888887000F5
:10251000203F2000030C3020007088080808380095
:102520000038202121221C00180808F8080818008B
:102530000000203F2000000008F808000008F8080C
:10254000001F202020201F000878880000C83808BD
:10255000000007380E010000F80800F80008F80035
:10256000033C0700073C03000818688080681808CF
:1025700020302C03032C30200838C800C83808004D
:102580000000203F2000000010080808C83808009C
:102590002038262120201800000000FE0202020040
:1025A0000000007F40404000000C30C000000000F0
:1025B000000000010638C00000020202FE00000018
:1025C000004040407F0000000000040202020400BE
:1025D00000000000000000000000000000000000FB
:1025E00080808080808080800002020400000000E3
:1025F00000000000000000000000808080800000DB
:102600000019242222223F2008F8008080000000C8
:10261000003F112020110E0000000080808000008B
:10262000000E112020201100000000808088F8009A
:10263000000E112020103F200000808080800000CC
:10264000001F222222221300008080F08888881830
:102650000020203F2020000000008080808080003B
:10266000006B94949493600008F8008080800000D0
:10267000203F210000203F200080989800000000AB
:102680000020203F202000000000008098980000DB
:1026900000C08080807F000008F8000080808000FB
:1026A000203F24022D302000000808F80000000020
:1026B0000020203F202000008080808080808000DB
:1026C000203F20003F20003F80800080808000006D
:1026D000203F210000203F200000808080800000FB
:1026E000001F202020201F0080800080800000002C
:1026F00080FFA12020110E0000000080808080005B
:10270000000E112020A0FF8080808000808080004B
:1027100020203F2120000100000080808080800078
:102720000033242424241900008080E080800000ED
:102730000000001F2020000080800000008080003A
:10274000001F202020103F2080808000008080809B
:1027500000010E300806010080800080008080802B
:102760000F300C030C300F00008080008080800050
:102770000020312E0E31200080808000008080807B
:1027800080818E701806010000808080808080002B
:102790000021302C2221300000000000807C020249
:1027A00000000000003F404000000000FF0000006B
:1027B00000000000FF0000000002027C800000001A
:1027C0000040403F00000000000601010202040436
:1027D00000000000000000000000000000000000F9
:1027E00000000000000000000000000000000000E9
:1027F00000000000000000000000000000000000D9
:1028000000000000000000000000000000000000C8
:1028100000000000000000000000000000000000B8
:1028200000000000000000000000000000000000A8
:102830000000000000000000000000000000000098
:102840000000000000000000000000000000000088
:102850000000000000000001000000000000000077
:102860000000000000000000000000000000000068
:102870000000000000000000000080808080808058
:1028800080808080808080808080800000000000C8
:102890000000000000000000000000000000000038
:1028A00000000000000000808080808080808080A8
:1028B0000000000000000000000000000000000018
:1028C0000000000000000000000000000000000008
:1028D00000000000000000000000000000000000F8
:1028E00000000000000000000000000000000000E8
:1028F0000000C0F0FCFEFEFFFFFFFFFFFFFFFFFF39
:10290000FFFFFFFFFFFFFFFFFFFFFFFFFFFFFFFED8
:10291000FCF8F0000000000000000000C0F0FCFC2B
:10292000FEFEFFFFFFFFFFFFFFFFFFFFFFFFFFFFB9
:10293000FFFFFFFFFFFFFEFEFEFCF8F0C0000000FF
:102940000000000000000000000000000000000087
:102950000000000000000000000000000000000077
:102960000000000000000000000000000000000067
:1029700000001F7F7F7FFFFFFFFFFFFFFFFFFFFFC5
:10298000FFFFFFFFFFFFFFFFFFFFFFFFFFFFFFFF57
:10299000FFFF3F0000000000000000003FFFFFFFBE
:1029A000FFFFFFFFFFFFFFFFFFFFFFFFFFFFFFFF37
:1029B000FFFFFFFFFFFFFFFFFFFFFFFF7F000000A4
:1029C0000000000000000000000000000000000007
:1029D00000000000000000000000000000000000F7
:1029E00000000000000000000000000000000000E7
:1029F00000000000000000000000000000000000D7
:102A00000000000000000000010101010121C101DE
:102A10000100000000000000000000000001018132
:102A2000E121010101010101010101010101010196
:102A3000010101010101010101010100000000008B
:102A40000000000000000000000000000000000086
:102A50000000000000000000000000000000000076
:102A60000000000000000000000000000000000066
:102A7000000000000000000000E0F0F8F8FCFCFCA2
:102A8000FCFEFEFCFCFCFCF8F8E0E0C0E0900F036C
:102A9000030202060606060606060606030303FFF1
:102AA000FFFEFEFEEECECEFEEEDEFEDEFEFEFEFE05
:102AB000FEFEFEFEFEFEFEFEE0E0E0E0E0E0C0C066
:102AC0000000000000000000000000000000000006
:102AD00000000000000000000000000000000000F6
:102AE00000000000000000000000000000000000E6
:102AF0000080E0F0F8FCFEFEFFFFFFFFFFFFFFFF9E
:102B0000FFFFFFFFFFFFFFFFFFFFFFFFFFFFFFFFD5
:102B1000FEFCF8F06000000000000000000080FFF4
:102B2000FFFFFFFFFFFFFFFFFFFFFFFFFFFFFFFFB5
:102B3000FFFFFFFFFFFFFFFFC3E3E3FFFFFF7F1F79
:102B40000000000000000000000000000000000085
:102B50000000000000000000000000000000000075
:102B60000000000000000000000000000000000065
:102B700000033F7F7F7F7F7F7F7F7F7F7F7F7F7FA0
:102B80007F7F7F7F7F7F7F7F7F7F7F7F3F3F1F0FA5
:102B90000703010100000000000000000000000326
:102BA0000F0F1F3F3F3F3F3F7F7F7F7F7F7F7F7FB5
:102BB0007F3F3F1F1F0F07070303030301010000AF
:102BC0000000000000000000000000000000000005
:102BD0000000000000000000F82B000800000020AA
:102BE00038000000701A0008302C0008380000205F
:102BF000C8040000801A00080000000000A24A0477
:102C0000000000000000000001020304060708099C
:102C100000000000000000000000000000000102B1
:102C20000304010203040607080902040608000061
:0400000508000101ED
:00000001FF
